{
  "contractName": "Color",
  "abi": [
    {
      "inputs": [],
      "stateMutability": "nonpayable",
      "type": "constructor"
    },
    {
      "anonymous": false,
      "inputs": [
        {
          "indexed": true,
          "internalType": "address",
          "name": "owner",
          "type": "address"
        },
        {
          "indexed": true,
          "internalType": "address",
          "name": "approved",
          "type": "address"
        },
        {
          "indexed": true,
          "internalType": "uint256",
          "name": "tokenId",
          "type": "uint256"
        }
      ],
      "name": "Approval",
      "type": "event"
    },
    {
      "anonymous": false,
      "inputs": [
        {
          "indexed": true,
          "internalType": "address",
          "name": "owner",
          "type": "address"
        },
        {
          "indexed": true,
          "internalType": "address",
          "name": "operator",
          "type": "address"
        },
        {
          "indexed": false,
          "internalType": "bool",
          "name": "approved",
          "type": "bool"
        }
      ],
      "name": "ApprovalForAll",
      "type": "event"
    },
    {
      "anonymous": false,
      "inputs": [
        {
          "indexed": true,
          "internalType": "address",
          "name": "from",
          "type": "address"
        },
        {
          "indexed": true,
          "internalType": "address",
          "name": "to",
          "type": "address"
        },
        {
          "indexed": true,
          "internalType": "uint256",
          "name": "tokenId",
          "type": "uint256"
        }
      ],
      "name": "Transfer",
      "type": "event"
    },
    {
      "inputs": [
        {
          "internalType": "address",
          "name": "to",
          "type": "address"
        },
        {
          "internalType": "uint256",
          "name": "tokenId",
          "type": "uint256"
        }
      ],
      "name": "approve",
      "outputs": [],
      "stateMutability": "nonpayable",
      "type": "function"
    },
    {
      "inputs": [
        {
          "internalType": "address",
          "name": "owner",
          "type": "address"
        }
      ],
      "name": "balanceOf",
      "outputs": [
        {
          "internalType": "uint256",
          "name": "",
          "type": "uint256"
        }
      ],
      "stateMutability": "view",
      "type": "function",
      "constant": true
    },
    {
      "inputs": [
        {
          "internalType": "uint256",
          "name": "",
          "type": "uint256"
        }
      ],
      "name": "colors",
      "outputs": [
        {
          "internalType": "string",
          "name": "",
          "type": "string"
        }
      ],
      "stateMutability": "view",
      "type": "function",
      "constant": true
    },
    {
      "inputs": [
        {
          "internalType": "uint256",
          "name": "tokenId",
          "type": "uint256"
        }
      ],
      "name": "getApproved",
      "outputs": [
        {
          "internalType": "address",
          "name": "",
          "type": "address"
        }
      ],
      "stateMutability": "view",
      "type": "function",
      "constant": true
    },
    {
      "inputs": [
        {
          "internalType": "address",
          "name": "owner",
          "type": "address"
        },
        {
          "internalType": "address",
          "name": "operator",
          "type": "address"
        }
      ],
      "name": "isApprovedForAll",
      "outputs": [
        {
          "internalType": "bool",
          "name": "",
          "type": "bool"
        }
      ],
      "stateMutability": "view",
      "type": "function",
      "constant": true
    },
    {
      "inputs": [],
      "name": "name",
      "outputs": [
        {
          "internalType": "string",
          "name": "",
          "type": "string"
        }
      ],
      "stateMutability": "view",
      "type": "function",
      "constant": true
    },
    {
      "inputs": [
        {
          "internalType": "uint256",
          "name": "tokenId",
          "type": "uint256"
        }
      ],
      "name": "ownerOf",
      "outputs": [
        {
          "internalType": "address",
          "name": "",
          "type": "address"
        }
      ],
      "stateMutability": "view",
      "type": "function",
      "constant": true
    },
    {
      "inputs": [
        {
          "internalType": "address",
          "name": "from",
          "type": "address"
        },
        {
          "internalType": "address",
          "name": "to",
          "type": "address"
        },
        {
          "internalType": "uint256",
          "name": "tokenId",
          "type": "uint256"
        }
      ],
      "name": "safeTransferFrom",
      "outputs": [],
      "stateMutability": "nonpayable",
      "type": "function"
    },
    {
      "inputs": [
        {
          "internalType": "address",
          "name": "from",
          "type": "address"
        },
        {
          "internalType": "address",
          "name": "to",
          "type": "address"
        },
        {
          "internalType": "uint256",
          "name": "tokenId",
          "type": "uint256"
        },
        {
          "internalType": "bytes",
          "name": "_data",
          "type": "bytes"
        }
      ],
      "name": "safeTransferFrom",
      "outputs": [],
      "stateMutability": "nonpayable",
      "type": "function"
    },
    {
      "inputs": [
        {
          "internalType": "address",
          "name": "operator",
          "type": "address"
        },
        {
          "internalType": "bool",
          "name": "approved",
          "type": "bool"
        }
      ],
      "name": "setApprovalForAll",
      "outputs": [],
      "stateMutability": "nonpayable",
      "type": "function"
    },
    {
      "inputs": [
        {
          "internalType": "bytes4",
          "name": "interfaceId",
          "type": "bytes4"
        }
      ],
      "name": "supportsInterface",
      "outputs": [
        {
          "internalType": "bool",
          "name": "",
          "type": "bool"
        }
      ],
      "stateMutability": "view",
      "type": "function",
      "constant": true
    },
    {
      "inputs": [],
      "name": "symbol",
      "outputs": [
        {
          "internalType": "string",
          "name": "",
          "type": "string"
        }
      ],
      "stateMutability": "view",
      "type": "function",
      "constant": true
    },
    {
      "inputs": [
        {
          "internalType": "uint256",
          "name": "tokenId",
          "type": "uint256"
        }
      ],
      "name": "tokenURI",
      "outputs": [
        {
          "internalType": "string",
          "name": "",
          "type": "string"
        }
      ],
      "stateMutability": "view",
      "type": "function",
      "constant": true
    },
    {
      "inputs": [
        {
          "internalType": "address",
          "name": "from",
          "type": "address"
        },
        {
          "internalType": "address",
          "name": "to",
          "type": "address"
        },
        {
          "internalType": "uint256",
          "name": "tokenId",
          "type": "uint256"
        }
      ],
      "name": "transferFrom",
      "outputs": [],
      "stateMutability": "nonpayable",
      "type": "function"
    },
    {
      "inputs": [
        {
          "internalType": "string",
          "name": "hex_color_code",
          "type": "string"
        }
      ],
      "name": "mint",
      "outputs": [],
      "stateMutability": "nonpayable",
      "type": "function"
    }
  ],
  "bytecode": "0x60806040523480156200001157600080fd5b506040518060400160405280600581526020017f436f6c6f720000000000000000000000000000000000000000000000000000008152506040518060400160405280600581526020017f434f4c4f52000000000000000000000000000000000000000000000000000000815250816000908051906020019062000096929190620000b8565b508060019080519060200190620000af929190620000b8565b505050620001cd565b828054620000c69062000168565b90600052602060002090601f016020900481019282620000ea576000855562000136565b82601f106200010557805160ff191683800117855562000136565b8280016001018555821562000136579182015b828111156200013557825182559160200191906001019062000118565b5b50905062000145919062000149565b5090565b5b80821115620001645760008160009055506001016200014a565b5090565b600060028204905060018216806200018157607f821691505b602082108114156200019857620001976200019e565b5b50919050565b7f4e487b7100000000000000000000000000000000000000000000000000000000600052602260045260246000fd5b61286b80620001dd6000396000f3fe608060405234801561001057600080fd5b50600436106100f55760003560e01c806370a0823111610097578063bd11f69d11610066578063bd11f69d14610282578063c87b56dd146102b2578063d85d3d27146102e2578063e985e9c5146102fe576100f5565b806370a08231146101fc57806395d89b411461022c578063a22cb4651461024a578063b88d4fde14610266576100f5565b8063095ea7b3116100d3578063095ea7b31461017857806323b872dd1461019457806342842e0e146101b05780636352211e146101cc576100f5565b806301ffc9a7146100fa57806306fdde031461012a578063081812fc14610148575b600080fd5b610114600480360381019061010f9190611aca565b61032e565b6040516101219190612203565b60405180910390f35b610132610410565b60405161013f919061221e565b60405180910390f35b610162600480360381019061015d9190611b5d565b6104a2565b60405161016f919061219c565b60405180910390f35b610192600480360381019061018d9190611a8e565b610527565b005b6101ae60048036038101906101a99190611988565b61063f565b005b6101ca60048036038101906101c59190611988565b61069f565b005b6101e660048036038101906101e19190611b5d565b6106bf565b6040516101f3919061219c565b60405180910390f35b61021660048036038101906102119190611923565b610771565b6040516102239190612400565b60405180910390f35b610234610829565b604051610241919061221e565b60405180910390f35b610264600480360381019061025f9190611a52565b6108bb565b005b610280600480360381019061027b91906119d7565b610a3c565b005b61029c60048036038101906102979190611b5d565b610a9e565b6040516102a9919061221e565b60405180910390f35b6102cc60048036038101906102c79190611b5d565b610b4a565b6040516102d9919061221e565b60405180910390f35b6102fc60048036038101906102f79190611b1c565b610bf1565b005b6103186004803603810190610313919061194c565b610c45565b6040516103259190612203565b60405180910390f35b60007f80ac58cd000000000000000000000000000000000000000000000000000000007bffffffffffffffffffffffffffffffffffffffffffffffffffffffff1916827bffffffffffffffffffffffffffffffffffffffffffffffffffffffff191614806103f957507f5b5e139f000000000000000000000000000000000000000000000000000000007bffffffffffffffffffffffffffffffffffffffffffffffffffffffff1916827bffffffffffffffffffffffffffffffffffffffffffffffffffffffff1916145b80610409575061040882610cd9565b5b9050919050565b60606000805461041f90612660565b80601f016020809104026020016040519081016040528092919081815260200182805461044b90612660565b80156104985780601f1061046d57610100808354040283529160200191610498565b820191906000526020600020905b81548152906001019060200180831161047b57829003601f168201915b5050505050905090565b60006104ad82610d43565b6104ec576040517f08c379a00000000000000000000000000000000000000000000000000000000081526004016104e390612360565b60405180910390fd5b6004600083815260200190815260200160002060009054906101000a900473ffffffffffffffffffffffffffffffffffffffff169050919050565b6000610532826106bf565b90508073ffffffffffffffffffffffffffffffffffffffff168373ffffffffffffffffffffffffffffffffffffffff1614156105a3576040517f08c379a000000000000000000000000000000000000000000000000000000000815260040161059a906123c0565b60405180910390fd5b8073ffffffffffffffffffffffffffffffffffffffff166105c2610daf565b73ffffffffffffffffffffffffffffffffffffffff1614806105f157506105f0816105eb610daf565b610c45565b5b610630576040517f08c379a0000000000000000000000000000000000000000000000000000000008152600401610627906122e0565b60405180910390fd5b61063a8383610db7565b505050565b61065061064a610daf565b82610e70565b61068f576040517f08c379a0000000000000000000000000000000000000000000000000000000008152600401610686906123e0565b60405180910390fd5b61069a838383610f4e565b505050565b6106ba83838360405180602001604052806000815250610a3c565b505050565b6000806002600084815260200190815260200160002060009054906101000a900473ffffffffffffffffffffffffffffffffffffffff169050600073ffffffffffffffffffffffffffffffffffffffff168173ffffffffffffffffffffffffffffffffffffffff161415610768576040517f08c379a000000000000000000000000000000000000000000000000000000000815260040161075f90612320565b60405180910390fd5b80915050919050565b60008073ffffffffffffffffffffffffffffffffffffffff168273ffffffffffffffffffffffffffffffffffffffff1614156107e2576040517f08c379a00000000000000000000000000000000000000000000000000000000081526004016107d990612300565b60405180910390fd5b600360008373ffffffffffffffffffffffffffffffffffffffff1673ffffffffffffffffffffffffffffffffffffffff168152602001908152602001600020549050919050565b60606001805461083890612660565b80601f016020809104026020016040519081016040528092919081815260200182805461086490612660565b80156108b15780601f10610886576101008083540402835291602001916108b1565b820191906000526020600020905b81548152906001019060200180831161089457829003601f168201915b5050505050905090565b6108c3610daf565b73ffffffffffffffffffffffffffffffffffffffff168273ffffffffffffffffffffffffffffffffffffffff161415610931576040517f08c379a0000000000000000000000000000000000000000000000000000000008152600401610928906122a0565b60405180910390fd5b806005600061093e610daf565b73ffffffffffffffffffffffffffffffffffffffff1673ffffffffffffffffffffffffffffffffffffffff16815260200190815260200160002060008473ffffffffffffffffffffffffffffffffffffffff1673ffffffffffffffffffffffffffffffffffffffff16815260200190815260200160002060006101000a81548160ff0219169083151502179055508173ffffffffffffffffffffffffffffffffffffffff166109eb610daf565b73ffffffffffffffffffffffffffffffffffffffff167f17307eab39ab6107e8899845ad3d59bd9653f200f220920489ca2b5937696c3183604051610a309190612203565b60405180910390a35050565b610a4d610a47610daf565b83610e70565b610a8c576040517f08c379a0000000000000000000000000000000000000000000000000000000008152600401610a83906123e0565b60405180910390fd5b610a98848484846111aa565b50505050565b60068181548110610aae57600080fd5b906000526020600020016000915090508054610ac990612660565b80601f0160208091040260200160405190810160405280929190818152602001828054610af590612660565b8015610b425780601f10610b1757610100808354040283529160200191610b42565b820191906000526020600020905b815481529060010190602001808311610b2557829003601f168201915b505050505081565b6060610b5582610d43565b610b94576040517f08c379a0000000000000000000000000000000000000000000000000000000008152600401610b8b906123a0565b60405180910390fd5b6000610b9e611206565b90506000815111610bbe5760405180602001604052806000815250610be9565b80610bc88461121d565b604051602001610bd9929190612178565b6040516020818303038152906040525b915050919050565b600681908060018154018082558091505060019003906000526020600020016000909190919091509080519060200190610c2c929190611747565b5060006006805490509050610c4133826113ca565b5050565b6000600560008473ffffffffffffffffffffffffffffffffffffffff1673ffffffffffffffffffffffffffffffffffffffff16815260200190815260200160002060008373ffffffffffffffffffffffffffffffffffffffff1673ffffffffffffffffffffffffffffffffffffffff16815260200190815260200160002060009054906101000a900460ff16905092915050565b60007f01ffc9a7000000000000000000000000000000000000000000000000000000007bffffffffffffffffffffffffffffffffffffffffffffffffffffffff1916827bffffffffffffffffffffffffffffffffffffffffffffffffffffffff1916149050919050565b60008073ffffffffffffffffffffffffffffffffffffffff166002600084815260200190815260200160002060009054906101000a900473ffffffffffffffffffffffffffffffffffffffff1673ffffffffffffffffffffffffffffffffffffffff1614159050919050565b600033905090565b816004600083815260200190815260200160002060006101000a81548173ffffffffffffffffffffffffffffffffffffffff021916908373ffffffffffffffffffffffffffffffffffffffff160217905550808273ffffffffffffffffffffffffffffffffffffffff16610e2a836106bf565b73ffffffffffffffffffffffffffffffffffffffff167f8c5be1e5ebec7d5bd14f71427d1e84f3dd0314c0f7b2291e5b200ac8c7c3b92560405160405180910390a45050565b6000610e7b82610d43565b610eba576040517f08c379a0000000000000000000000000000000000000000000000000000000008152600401610eb1906122c0565b60405180910390fd5b6000610ec5836106bf565b90508073ffffffffffffffffffffffffffffffffffffffff168473ffffffffffffffffffffffffffffffffffffffff161480610f3457508373ffffffffffffffffffffffffffffffffffffffff16610f1c846104a2565b73ffffffffffffffffffffffffffffffffffffffff16145b80610f455750610f448185610c45565b5b91505092915050565b8273ffffffffffffffffffffffffffffffffffffffff16610f6e826106bf565b73ffffffffffffffffffffffffffffffffffffffff1614610fc4576040517f08c379a0000000000000000000000000000000000000000000000000000000008152600401610fbb90612380565b60405180910390fd5b600073ffffffffffffffffffffffffffffffffffffffff168273ffffffffffffffffffffffffffffffffffffffff161415611034576040517f08c379a000000000000000000000000000000000000000000000000000000000815260040161102b90612280565b60405180910390fd5b61103f838383611598565b61104a600082610db7565b6001600360008573ffffffffffffffffffffffffffffffffffffffff1673ffffffffffffffffffffffffffffffffffffffff168152602001908152602001600020600082825461109a9190612576565b925050819055506001600360008473ffffffffffffffffffffffffffffffffffffffff1673ffffffffffffffffffffffffffffffffffffffff16815260200190815260200160002060008282546110f191906124ef565b92505081905550816002600083815260200190815260200160002060006101000a81548173ffffffffffffffffffffffffffffffffffffffff021916908373ffffffffffffffffffffffffffffffffffffffff160217905550808273ffffffffffffffffffffffffffffffffffffffff168473ffffffffffffffffffffffffffffffffffffffff167fddf252ad1be2c89b69c2b068fc378daa952ba7f163c4a11628f55a4df523b3ef60405160405180910390a4505050565b6111b5848484610f4e565b6111c18484848461159d565b611200576040517f08c379a00000000000000000000000000000000000000000000000000000000081526004016111f790612240565b60405180910390fd5b50505050565b606060405180602001604052806000815250905090565b60606000821415611265576040518060400160405280600181526020017f300000000000000000000000000000000000000000000000000000000000000081525090506113c5565b600082905060005b6000821461129757808061128090612692565b915050600a826112909190612545565b915061126d565b60008167ffffffffffffffff8111156112d9577f4e487b7100000000000000000000000000000000000000000000000000000000600052604160045260246000fd5b6040519080825280601f01601f19166020018201604052801561130b5781602001600182028036833780820191505090505b5090505b600085146113be576001826113249190612576565b9150600a8561133391906126db565b603061133f91906124ef565b60f81b81838151811061137b577f4e487b7100000000000000000000000000000000000000000000000000000000600052603260045260246000fd5b60200101907effffffffffffffffffffffffffffffffffffffffffffffffffffffffffffff1916908160001a905350600a856113b79190612545565b945061130f565b8093505050505b919050565b600073ffffffffffffffffffffffffffffffffffffffff168273ffffffffffffffffffffffffffffffffffffffff16141561143a576040517f08c379a000000000000000000000000000000000000000000000000000000000815260040161143190612340565b60405180910390fd5b61144381610d43565b15611483576040517f08c379a000000000000000000000000000000000000000000000000000000000815260040161147a90612260565b60405180910390fd5b61148f60008383611598565b6001600360008473ffffffffffffffffffffffffffffffffffffffff1673ffffffffffffffffffffffffffffffffffffffff16815260200190815260200160002060008282546114df91906124ef565b92505081905550816002600083815260200190815260200160002060006101000a81548173ffffffffffffffffffffffffffffffffffffffff021916908373ffffffffffffffffffffffffffffffffffffffff160217905550808273ffffffffffffffffffffffffffffffffffffffff16600073ffffffffffffffffffffffffffffffffffffffff167fddf252ad1be2c89b69c2b068fc378daa952ba7f163c4a11628f55a4df523b3ef60405160405180910390a45050565b505050565b60006115be8473ffffffffffffffffffffffffffffffffffffffff16611734565b15611727578373ffffffffffffffffffffffffffffffffffffffff1663150b7a026115e7610daf565b8786866040518563ffffffff1660e01b815260040161160994939291906121b7565b602060405180830381600087803b15801561162357600080fd5b505af192505050801561165457506040513d601f19601f820116820180604052508101906116519190611af3565b60015b6116d7573d8060008114611684576040519150601f19603f3d011682016040523d82523d6000602084013e611689565b606091505b506000815114156116cf576040517f08c379a00000000000000000000000000000000000000000000000000000000081526004016116c690612240565b60405180910390fd5b805181602001fd5b63150b7a0260e01b7bffffffffffffffffffffffffffffffffffffffffffffffffffffffff1916817bffffffffffffffffffffffffffffffffffffffffffffffffffffffff19161491505061172c565b600190505b949350505050565b600080823b905060008111915050919050565b82805461175390612660565b90600052602060002090601f01602090048101928261177557600085556117bc565b82601f1061178e57805160ff19168380011785556117bc565b828001600101855582156117bc579182015b828111156117bb5782518255916020019190600101906117a0565b5b5090506117c991906117cd565b5090565b5b808211156117e65760008160009055506001016117ce565b5090565b60006117fd6117f88461244c565b61241b565b90508281526020810184848401111561181557600080fd5b61182084828561261e565b509392505050565b600061183b6118368461247c565b61241b565b90508281526020810184848401111561185357600080fd5b61185e84828561261e565b509392505050565b600081359050611875816127d9565b92915050565b60008135905061188a816127f0565b92915050565b60008135905061189f81612807565b92915050565b6000815190506118b481612807565b92915050565b600082601f8301126118cb57600080fd5b81356118db8482602086016117ea565b91505092915050565b600082601f8301126118f557600080fd5b8135611905848260208601611828565b91505092915050565b60008135905061191d8161281e565b92915050565b60006020828403121561193557600080fd5b600061194384828501611866565b91505092915050565b6000806040838503121561195f57600080fd5b600061196d85828601611866565b925050602061197e85828601611866565b9150509250929050565b60008060006060848603121561199d57600080fd5b60006119ab86828701611866565b93505060206119bc86828701611866565b92505060406119cd8682870161190e565b9150509250925092565b600080600080608085870312156119ed57600080fd5b60006119fb87828801611866565b9450506020611a0c87828801611866565b9350506040611a1d8782880161190e565b925050606085013567ffffffffffffffff811115611a3a57600080fd5b611a46878288016118ba565b91505092959194509250565b60008060408385031215611a6557600080fd5b6000611a7385828601611866565b9250506020611a848582860161187b565b9150509250929050565b60008060408385031215611aa157600080fd5b6000611aaf85828601611866565b9250506020611ac08582860161190e565b9150509250929050565b600060208284031215611adc57600080fd5b6000611aea84828501611890565b91505092915050565b600060208284031215611b0557600080fd5b6000611b13848285016118a5565b91505092915050565b600060208284031215611b2e57600080fd5b600082013567ffffffffffffffff811115611b4857600080fd5b611b54848285016118e4565b91505092915050565b600060208284031215611b6f57600080fd5b6000611b7d8482850161190e565b91505092915050565b611b8f816125aa565b82525050565b611b9e816125bc565b82525050565b6000611baf826124ac565b611bb981856124c2565b9350611bc981856020860161262d565b611bd2816127c8565b840191505092915050565b6000611be8826124b7565b611bf281856124d3565b9350611c0281856020860161262d565b611c0b816127c8565b840191505092915050565b6000611c21826124b7565b611c2b81856124e4565b9350611c3b81856020860161262d565b80840191505092915050565b6000611c546032836124d3565b91507f4552433732313a207472616e7366657220746f206e6f6e20455243373231526560008301527f63656976657220696d706c656d656e74657200000000000000000000000000006020830152604082019050919050565b6000611cba601c836124d3565b91507f4552433732313a20746f6b656e20616c7265616479206d696e746564000000006000830152602082019050919050565b6000611cfa6024836124d3565b91507f4552433732313a207472616e7366657220746f20746865207a65726f2061646460008301527f72657373000000000000000000000000000000000000000000000000000000006020830152604082019050919050565b6000611d606019836124d3565b91507f4552433732313a20617070726f766520746f2063616c6c6572000000000000006000830152602082019050919050565b6000611da0602c836124d3565b91507f4552433732313a206f70657261746f7220717565727920666f72206e6f6e657860008301527f697374656e7420746f6b656e00000000000000000000000000000000000000006020830152604082019050919050565b6000611e066038836124d3565b91507f4552433732313a20617070726f76652063616c6c6572206973206e6f74206f7760008301527f6e6572206e6f7220617070726f76656420666f7220616c6c00000000000000006020830152604082019050919050565b6000611e6c602a836124d3565b91507f4552433732313a2062616c616e636520717565727920666f7220746865207a6560008301527f726f2061646472657373000000000000000000000000000000000000000000006020830152604082019050919050565b6000611ed26029836124d3565b91507f4552433732313a206f776e657220717565727920666f72206e6f6e657869737460008301527f656e7420746f6b656e00000000000000000000000000000000000000000000006020830152604082019050919050565b6000611f386020836124d3565b91507f4552433732313a206d696e7420746f20746865207a65726f20616464726573736000830152602082019050919050565b6000611f78602c836124d3565b91507f4552433732313a20617070726f76656420717565727920666f72206e6f6e657860008301527f697374656e7420746f6b656e00000000000000000000000000000000000000006020830152604082019050919050565b6000611fde6029836124d3565b91507f4552433732313a207472616e73666572206f6620746f6b656e2074686174206960008301527f73206e6f74206f776e00000000000000000000000000000000000000000000006020830152604082019050919050565b6000612044602f836124d3565b91507f4552433732314d657461646174613a2055524920717565727920666f72206e6f60008301527f6e6578697374656e7420746f6b656e00000000000000000000000000000000006020830152604082019050919050565b60006120aa6021836124d3565b91507f4552433732313a20617070726f76616c20746f2063757272656e74206f776e6560008301527f72000000000000000000000000000000000000000000000000000000000000006020830152604082019050919050565b60006121106031836124d3565b91507f4552433732313a207472616e736665722063616c6c6572206973206e6f74206f60008301527f776e6572206e6f7220617070726f7665640000000000000000000000000000006020830152604082019050919050565b61217281612614565b82525050565b60006121848285611c16565b91506121908284611c16565b91508190509392505050565b60006020820190506121b16000830184611b86565b92915050565b60006080820190506121cc6000830187611b86565b6121d96020830186611b86565b6121e66040830185612169565b81810360608301526121f88184611ba4565b905095945050505050565b60006020820190506122186000830184611b95565b92915050565b600060208201905081810360008301526122388184611bdd565b905092915050565b6000602082019050818103600083015261225981611c47565b9050919050565b6000602082019050818103600083015261227981611cad565b9050919050565b6000602082019050818103600083015261229981611ced565b9050919050565b600060208201905081810360008301526122b981611d53565b9050919050565b600060208201905081810360008301526122d981611d93565b9050919050565b600060208201905081810360008301526122f981611df9565b9050919050565b6000602082019050818103600083015261231981611e5f565b9050919050565b6000602082019050818103600083015261233981611ec5565b9050919050565b6000602082019050818103600083015261235981611f2b565b9050919050565b6000602082019050818103600083015261237981611f6b565b9050919050565b6000602082019050818103600083015261239981611fd1565b9050919050565b600060208201905081810360008301526123b981612037565b9050919050565b600060208201905081810360008301526123d98161209d565b9050919050565b600060208201905081810360008301526123f981612103565b9050919050565b60006020820190506124156000830184612169565b92915050565b6000604051905081810181811067ffffffffffffffff8211171561244257612441612799565b5b8060405250919050565b600067ffffffffffffffff82111561246757612466612799565b5b601f19601f8301169050602081019050919050565b600067ffffffffffffffff82111561249757612496612799565b5b601f19601f8301169050602081019050919050565b600081519050919050565b600081519050919050565b600082825260208201905092915050565b600082825260208201905092915050565b600081905092915050565b60006124fa82612614565b915061250583612614565b9250827fffffffffffffffffffffffffffffffffffffffffffffffffffffffffffffffff0382111561253a5761253961270c565b5b828201905092915050565b600061255082612614565b915061255b83612614565b92508261256b5761256a61273b565b5b828204905092915050565b600061258182612614565b915061258c83612614565b92508282101561259f5761259e61270c565b5b828203905092915050565b60006125b5826125f4565b9050919050565b60008115159050919050565b60007fffffffff0000000000000000000000000000000000000000000000000000000082169050919050565b600073ffffffffffffffffffffffffffffffffffffffff82169050919050565b6000819050919050565b82818337600083830152505050565b60005b8381101561264b578082015181840152602081019050612630565b8381111561265a576000848401525b50505050565b6000600282049050600182168061267857607f821691505b6020821081141561268c5761268b61276a565b5b50919050565b600061269d82612614565b91507fffffffffffffffffffffffffffffffffffffffffffffffffffffffffffffffff8214156126d0576126cf61270c565b5b600182019050919050565b60006126e682612614565b91506126f183612614565b9250826127015761270061273b565b5b828206905092915050565b7f4e487b7100000000000000000000000000000000000000000000000000000000600052601160045260246000fd5b7f4e487b7100000000000000000000000000000000000000000000000000000000600052601260045260246000fd5b7f4e487b7100000000000000000000000000000000000000000000000000000000600052602260045260246000fd5b7f4e487b7100000000000000000000000000000000000000000000000000000000600052604160045260246000fd5b6000601f19601f8301169050919050565b6127e2816125aa565b81146127ed57600080fd5b50565b6127f9816125bc565b811461280457600080fd5b50565b612810816125c8565b811461281b57600080fd5b50565b61282781612614565b811461283257600080fd5b5056fea2646970667358221220030ee132800b85928e9418b0b454d981ba8f9f8df75dd573c81d20a2ab1fa08464736f6c63430008000033",
  "immutableReferences": {},
  "source": "pragma solidity 0.8.0;\n\nimport \"@openzeppelin/contracts/token/ERC721/ERC721.sol\";\n\n\ncontract Color is ERC721 {\n     string[] public colors;\n\n     constructor() ERC721(\"Color\", \"COLOR\") public {\n     }\n\n\n     function mint(string memory hex_color_code) public {\n        colors.push(hex_color_code);\n\t\tuint _id = colors.length;\n        _mint(msg.sender, _id);\n     }\n}",
  "sourcePath": "/Users/erinc/Documents/nft-training/src/contracts/Color.sol",
  "compiler": {
    "name": "solc",
    "version": "0.8.0+commit.c7dfd78e.Emscripten.clang"
  },
  "schemaVersion": "3.4.3",
  "updatedAt": "2021-09-04T21:57:06.617Z",
  "networkType": "ethereum",
  "devdoc": {
    "kind": "dev",
    "methods": {
      "approve(address,uint256)": {
        "details": "See {IERC721-approve}."
      },
      "balanceOf(address)": {
        "details": "See {IERC721-balanceOf}."
      },
      "getApproved(uint256)": {
        "details": "See {IERC721-getApproved}."
      },
      "isApprovedForAll(address,address)": {
        "details": "See {IERC721-isApprovedForAll}."
      },
      "name()": {
        "details": "See {IERC721Metadata-name}."
      },
      "ownerOf(uint256)": {
        "details": "See {IERC721-ownerOf}."
      },
      "safeTransferFrom(address,address,uint256)": {
        "details": "See {IERC721-safeTransferFrom}."
      },
      "safeTransferFrom(address,address,uint256,bytes)": {
        "details": "See {IERC721-safeTransferFrom}."
      },
      "setApprovalForAll(address,bool)": {
        "details": "See {IERC721-setApprovalForAll}."
      },
      "supportsInterface(bytes4)": {
        "details": "See {IERC165-supportsInterface}."
      },
      "symbol()": {
        "details": "See {IERC721Metadata-symbol}."
      },
      "tokenURI(uint256)": {
        "details": "See {IERC721Metadata-tokenURI}."
      },
      "transferFrom(address,address,uint256)": {
        "details": "See {IERC721-transferFrom}."
      }
    },
    "version": 1
  },
  "userdoc": {
    "kind": "user",
    "methods": {},
    "version": 1
  }
}